:020000041000EA
:1000000000B5324B212058609868022188439860DF
:10001000D860186158612E4B002199600221596106
:100020000121F02299502B49196001219960352056
:1000300000F044F80222904214D00621196600F024
:1000400034F8196E01211966002018661A6600F04E
:100050002CF8196E196E196E052000F02FF8012189
:100060000842F9D1002199601B49196000215960AB
:100070001A491B48016001219960EB211966A021F2
:10008000196600F012F800219960164914480160C1
:100090000121996001BC002800D000471248134993
:1000A000086003C880F30888084703B5996A0420EC
:1000B0000142FBD001200142F8D103BD02B5186610
:1000C0001866FFF7F2FF186E186E02BD00000240BE
:1000D000000000180000070000035F00212200005C
:1000E000F4000018222000A00001001008ED00E03C
:1000F00000000000000000000000000074B24E7A12
:1001000000200420F7010010C3010010C5010010F9
:10011000C1010010C1010010C1010010C101001097
:10012000C1010010C1010010C1010010C701001081
:10013000C1010010C1010010C9010010CB01001065
:10014000CD010010CD010010CD010010CD01001037
:10015000CD010010CD010010CD010010CD01001027
:10016000CD010010CD010010CD010010CD01001017
:10017000CD010010CD010010CD010010CD01001007
:10018000CD010010CD010010CD010010CD010010F7
:10019000CD010010CD010010CD010010CD010010E7
:1001A000CD010010CD010010CD010010CD010010D7
:1001B000CD010010CD010010CD010010CD010010C7
:1001C00000BE00BE00BE00BE00BE00BE00F04BF888
:1001D000103800BEF2EB88713C1F0010581F001051
:1001E0003402001090A31AE700202149086006C8D5
:1001F00081F3088810471F48006800282FD10DA4FC
:100200000ECC002902D000F012F8F9E71A491B4A77
:10021000002000E001C19142FCD1194988471949E9
:1002200088471949884700BEFDE701C901C29A42C3
:10023000FBD37047581F0010C0000020BC060020F0
:100240005425001000000420000004205425001054
:1002500000100420001004200000000070470B482C
:1002600001F0E2FA0047EFF30580C0B270470000EA
:1002700008ED00E0000000D0C00600208C0A00203D
:10028000E10F0010E5020010E110001057560000C9
:1002900006005250ABB36053EC1E001006005250E3
:1002A000861C0302FC1E0010060052505422A29D20
:1002B000041F001005005250DE65F468542500103C
:1002C000F8B5C046044B10B5002B03D003490448D1
:1002D00000E000BF10BDC04600000000480A00203A
:1002E000901E001070B5D024802519202406AD047E
:1002F00000F00CF86562FA206561400000F00EFB2A
:10030000FA20A561400000F009FBF4E70123D022A8
:100310008340120693629361094A40219446830008
:1003200063441A68C0004A40803111408022520163
:1003300013431960034B9C46052360444360704798
:1003400004C001400040014070B5EFF3108C72B65C
:100350000D4D2B68002BFCD0BFF35F8F0724CB081B
:10036000C618C05C01230C40A3401C00044003429B
:1003700007D118433070BFF35F8F2C608CF3108867
:1003800070BD100000F0AEFE2C0100D0024B1868CA
:100390008007C00F7047C04600C006400021044BD4
:1003A000044ABFF35F8F02C39342FAD17047C0463D
:1003B000000100D0800100D0044A1078431CDBB259
:1003C000172B00D9102313707047C046D8010020A6
:1003D00083680B4810B584466144624412010901E8
:1003E00059189B185C684A680120944201D802D0D1
:1003F0000020C0B210BD1A680B689A42F9D8F7E71E
:10040000FFFFFF0F0A4B1968EFF3108072B60A68FE
:10041000002AFCD0BFF35F8F1B68BFF35F8F002201
:100420001A6080F3108840BF002000217047C0464A
:10043000740A0020F8B5574645464E46DE46E0B5FC
:1004400099460CAB1C780DAB1B78070090469A467A
:100450000568002C44D1AC7B002C3BD06600296899
:100460003619033E89194B78AB73002B00D1EB731F
:1004700000238B704B700B702C4BE218BB68120181
:100480009B1842461A604A465A600A9A9A600B9A2A
:10049000DA6000238B704B700B706B7B9B46002BDC
:1004A0002ED06B6822005946A86898475B465B00CF
:1004B0005B44033B002819D0584629688E19B07058
:1004C000CA18CB5C002B00D073705B4614706B7342
:1004D0005C4516D0F0BCBB46B246A946A046F8BD66
:1004E000660029683619033E8919C5E72A68D318BA
:1004F0009C709119925D002A00D05A705B460B7077
:100500006C7342464B46387D00F0ECFA051E02D073
:100510005346002B04D00E9B002BDBD01D70D9E777
:100520002100386800F01EFDF5E7C046FFFFFF0F11
:10053000F0B5DE464E46574645460023E0B58DB041
:100540000A936B4B8200D3580B90994600239B462D
:100550004B46079300F066FA079C06000F0062689E
:10056000EFF3108572B61368002BFCD022000794BD
:10057000BFF35F8F2468637B9946002B66D0926837
:100580005C4B90464B441B01984443461A685B6899
:1005900010001900801BB94100295EDD0B9800F0A6
:1005A000A1FA00230026984600279A46079C636814
:1005B000BFF35F8F5A461A6085F310885346002BAD
:1005C00008D10028C6D10DB0F0BCBB46B246A94642
:1005D000A046F0BD0A9B414618024B461843D0473F
:1005E000089009916268EFF3108572B61368002BCA
:1005F000FCD00794BFF35F8F0899099A002A47DB64
:10060000114303D0079B1B69002B5CD1079B1B6820
:10061000D97B002906D01A6848004118521849466B
:10062000033A51704A46DA734B46079A013BD16848
:10063000CA5C0132CA545B46079A13615368BFF320
:100640005F8F5A461A6085F3108883E700230026DF
:10065000984600279A460020A8E7002901D10028E3
:100660009CD10021200000F0FFFB43461E685F681C
:100670009B68079A9A464346DB689846D3684B4482
:10068000013B1B780A931B020343136100208DE793
:100690002369002BBAD033003C005B1A94411A0046
:1006A0002300A74219D89F421BD05946049101212B
:1006B00003914946029141460191514607980091A4
:1006C000FFF7B8FEB7E700F0ADF9089A099B0600FE
:1006D0000F0092197B419942E5D901225242D3176A
:1006E000E3E79642E1D901225242D317DDE7C04643
:1006F000600A0020FFFFFF0FF8B557464E464546FB
:10070000DE46E0B53E4D81468A466A68EFF31088C2
:1007100072B61368002BFCD0BFF35F8F2E68B47BDA
:10072000002C38D0670033683F19033FDB195A7833
:10073000B273002A00D1F273324AA118AA680901E3
:10074000521849461160514651602F49916000216D
:10075000D160997059701970737B9B46002B32D011
:10076000736822005946B06898475B465B005B445B
:10077000033B00281DD058463168CF19B870CA18FD
:10078000CB5C002B00D07B705B46147073735C45B0
:100790001AD0002623E06B68BFF35F8F1C6088F3DC
:1007A000108801204042F0BCBB46B246A946A04694
:1007B000F8BD3268D3189C70D119D25D002A00D0E0
:1007C0005A705B460B7074734A465346287D00F09E
:1007D00089F9061EDDD02100286800F0C3FBEB6814
:1007E0001B19013B19786B68BFF35F8F00221A60F9
:1007F00088F310880020002ED5D108022043D2E7CC
:10080000DC010020FFFFFF0F0504001010B5124CA3
:100810006368002B04D00A21104800F0F1F910BDE4
:1008200023000F4A1021206800F03CFA032000F05A
:10083000EDF8032000F0C6F903200A4900F00CF996
:10084000FFF7BAFD084B9C46032360442375074B12
:1008500080006060DC60DEE7DC010020740A0020BC
:10086000D10300103105001040000034600A002060
:10087000F0B504000D0006267642F717C646361975
:100880006F4100B58F4213D810D000F0CBF8320082
:100890003B00121A8B41002B14DC002B37D02900AF
:1008A000200000F0C9F880BCB846F0BD8642ECD903
:1008B0000026002700F0B6F832003B00121A8B41E8
:1008C000002BEADD30003900FFF716FF0028E6DBD9
:1008D00000239846BC460F4A0F4F7B6A9C4504D8BC
:1008E000B96A8E42DBD99C45D9D11168EFF31080EB
:1008F00072B60B68002BFCD0BFF35F8F1368BFF399
:100900005F8F4146196080F3108820BFE5E7002A19
:10091000C5D0D7E7740A00200040054070B5060036
:1009200000F080F8FA2204000D00002330000021BE
:10093000920001F027F8001969418D4205D802D0D4
:10094000FFF796FF70BD8442FAD901204042C117DB
:10095000F6E7C046F0B5D6464F464646C0B5EFF37B
:1009600005823F23134018001038EFF3108C72B645
:1009700020490A68002AFCD0BFF35F8F01221700CC
:1009800087401D4C1600A24667631C4C2578A04684
:100990002C00C4402640224209D1BFF35F8F0E6075
:1009A0008CF31088E0BCBA46B146A846F0BD52466A
:1009B000566A134A8400A25896420ED34246114BFF
:1009C000BD43E3581570BFF35F8F00220A608CF3BC
:1009D0001088002BE6D09847E4E70B4A9B0090462E
:1009E00043441A681A60BFF35F8F00230B608CF3D7
:1009F0001088D7E7280100D0004005408A0A00206F
:100A0000780A0020C4090020D03F054010B5034BF0
:100A100001001800024AFFF797FC10BD880A002069
:100A2000901E0010034B596A0A00986A596A8A425C
:100A3000FAD1704700400540064A536A9942FCD8F3
:100A400007D1044B02E05A6A914202D19A6A82426B
:100A5000F9D370470040054070B504000D00EFF376
:100A6000108672B61A4A1368002BFCD0BFF35F8F52
:100A7000002D1BD0200000F0BDFC164981420AD099
:100A8000200000F0BFFC0121200000F0A1FC0123A8
:100A9000A340114A1360114BA400E550BFF35F8FD0
:100AA00000220B4B1A6086F3108870BD0121A14013
:100AB0000A4BA200D5500A4B20001A788A430549F8
:100AC0001A7000F0C9FC0021200000F081FCE5E76D
:100AD000280100D05509001038600540C4090020E5
:100AE0008A0A0020F0B54F46D6464646C0B50700F4
:100AF0002F4C616A0D00A66A616AA942FAD18B4245
:100B000008D805D00120E0BCBA46B146A846F0BDE1
:100B1000B242F7D9EFF3108A72B62648016800296D
:100B2000FCD0BFF35F8F0125BD402349204C884690
:100B3000097889462943C9B28C4641466046087007
:100B4000391D890065630A511C49B8004350216A68
:100B50000020294219D0616A0800A66A616A8142B0
:100B6000FAD18B4219D801D1B24216D8CC451DD04A
:100B70000F4B1F221D625D6301233A409340104AD0
:100B80000120136043464A461A70BFF35F8F00226C
:100B9000084B1A608AF31088B5E70020BFF35F8F17
:100BA0000022044B1A608AF31088ACE70120ECE7BE
:100BB00000400540280100D08A0A0020780A002061
:100BC00080E200E0EFF3108C72B60A490B68002B4C
:100BD000FCD0BFF35F8F01238340074A07481362AD
:100BE00002789A430270BFF35F8F00230B608CF38F
:100BF00010887047280100D0004005408A0A002074
:100C0000024B9C46614489000160704740000034FB
:100C100010B50400FFF7D0FB01002000FFF7F0FF44
:100C2000FF23A380BFF35F8F10BDC04610B5040043
:100C3000FFF7C2FB01002000FFF7E2FF01235B4248
:100C4000A380BFF35F8F10BD70B5050014001600C0
:100C5000002915D00C00002A12D06B6880689847D4
:100C60007200630092191B192968033A033B00289C
:100C700008D08A189470C818CB5C002B0FD106706E
:100C8000200070BDCB189E7088188A5C002A02D1A3
:100C900004703400F4E75A7004703400F0E75370C5
:100CA0000670EDE710B583600023CCB243730133C7
:100CB000426004738373C4730068421C012C05D91D
:100CC0000133DBB2137003329C42F9D1FF230B4096
:100CD0005A00D318C01800230338437010BDC04613
:100CE000F8B505000C1E07D0630001681B19033B13
:100CF000CB185A78002A01D12000F8BD5000801886
:100D00000338091800204F784870210058702800D7
:100D1000FFF79AFF390006002800FFF7E1FF040003
:100D2000002EE9D0002820D0220031006B68A8688E
:100D300098476200730012199B192968033A033B14
:100D4000002809D08A189670C818CB5C002B00D0F8
:100D5000537004703400CFE7CB189C7088188A5CFD
:100D6000002A00D05A700670C6E73400C4E7C046B7
:100D7000F0B557464546DE464E46E0B50D006B00E1
:100D800001685B19DF1E0400C85D83B00192CA19B7
:100D900000284CD043001B18033BCB185E78B446A8
:100DA000002E16D1019E002E3ED0E67B002E04D0F0
:100DB00073009B19CB18033B5D70E57300282FD19E
:100DC0000023537003B0F0BCBB46B246A946A04610
:100DD000F0BD72006244033A8A18517888460021B7
:100DE000517089465970320001002000FFF72CFF36
:100DF00043468246002B07D05B0021684344033BF7
:100E0000CB185A78002A16D1424651462000FFF7E7
:100E10001BFF2168019BCA19002BC6D10028CFD027
:100E200043001B18033BCB1800219970C8E7019BB6
:100E3000002BBAD1C4E7500080180338091848784D
:100E4000834648464870587041462000FFF7FCFE34
:100E5000594680462000FFF743FF4146020020002C
:100E6000FFF7F2FE8046CFE7F0B557464546DE462F
:100E70004E46E0B583B00191457B04006B000068ED
:100E80005B19DF1EC15DC21900294ED04B005B18F3
:100E9000033BC3185E78B446002E18D1019E002E85
:100EA00040D0E67B002E04D073009B19C318033B8F
:100EB0005D70E573002931D1002328005370617300
:100EC00003B0F0BCBB46B246A946A046F0BD7200D6
:100ED0006244033A82185078804600205070814660
:100EE000587032002000FFF7AFFE43468246002BC9
:100EF00007D05B0021684344033BCB185A78002A93
:100F000017D1424651462000FFF79EFE019B01008B
:100F10002068C219002BC4D10029CDD04B005B182A
:100F2000033BC31800209870C6E7019B002BB8D183
:100F3000C2E75000801803380918487883464846AD
:100F40004870587041462000FFF77EFE59468046A3
:100F50002000FFF7C5FE414602002000FFF774FEA7
:100F60008046CEE770B5040000292CD0437B8B422D
:100F70002ED0056848004018033828188278002AC7
:100F800021D053009B18033BEA5CEE188A4202D141
:100F90001BE0002A08D053009B18033BEB185A783B
:100FA0008A42F6D142785A7000230122837043703E
:100FB0002000FFF7DDFE617B02002000FFF744FE0A
:100FC0006073012000E0002070BD43783370EBE7D0
:100FD00001221900FFF7CCFE60730120F4E7C04640
:100FE000F8B5304A304B31491A60314A314B1A60FA
:100FF00014008B689C43FBD12F4D304EB54208D274
:10100000013E761BB60808CD984723000134B34251
:10101000F9D100F085F82A4A264B1A60234A9368D2
:10102000DB43DB01DD09002BF9D14022254B264CA7
:10103000264F9A675A671A67DA66BC4215D2013F93
:101040003F1B0026FF0806E0FFF7F0FD0834731C85
:10105000BE420AD01E0063792000002BF4D1FFF7B6
:10106000D7FD0834731CBE42F4D1194C194EC0226E
:10107000B168200000F0F0FCB460FFF78FF900F0D9
:1010800023FBFFF7C3FB144C144EB44208D2013EBD
:10109000361BB60808CC98472B0001359E42F9D183
:1010A000F8BDC046BFCDFBFE00E0004000C00040E0
:1010B000FE7F3C0000F00040A4060020B4060020A3
:1010C000FFFFFF0100F001409C060020A406002065
:1010D0000000002000ED00E0B4060020BC06002067
:1010E00000BEFDE70FB400B5084883B000F05EFD18
:1010F000049B002B07D005A91800019100F074FB98
:10110000034800F053FD00BEFDE7C046B41E0010CA
:10111000C41E001010B50148FFF7E4FFC81E001000
:1011200010B50C2082B000F03BFBFFF72FF9002830
:101130000ED0854B854A1A605A609A60DA601A614F
:101140005A619A61DA611A62814A5A6202B010BD2C
:10115000804CA06700F02CFB01227F4B1A60636C6F
:10116000012BFCD103227D4B1A607A4A936B012B31
:10117000FCD1022401217A4A7A480533009400F018
:10118000BFFA0523784A01217848009400F0B8FAA4
:10119000774B5A68FF2A02D8802252005A60802278
:1011A0006E4B694C12011A602169002905D06069F3
:1011B00000F06CFB01300138FDD1E0226C4B6D4832
:1011C00019680A40026002221968514001320A403F
:1011D000042102609A681142FCD08021664A09010C
:1011E0001160802252005A60644B2361644B59683D
:1011F000FF2900D85A6003220121574B1A60604A28
:1012000093681942FCD0E023106803405D480360F6
:10121000126803234A4002211340594A036093682D
:101220001942FCD08021584B090119608021574B8D
:10123000490051606361564B5A68FF2A00D85960D3
:101240008022544B12011A60E169002905D06069BF
:1012500000F01CFB01300138FDD1E0234C4A11683D
:101260000B404D490B6080214C4B090119608021D6
:10127000364B49005160E361494B5A68FF2A00D858
:1012800059608022474B12011A60216A002905D05B
:10129000606900F0FBFA01300138FDD1E023404ADB
:1012A00011680B4040490B608021404B09011960D7
:1012B00080235B0053608022244BD20223623C4B8C
:1012C0005968914200D25A6080223A4B12011A604A
:1012D000616A002905D0606900F0D8FA0130013850
:1012E000FDD1E023324A11680B4033490B60802165
:1012F000324B090119608023DB025360144B636297
:101300002F4B5A68FF2A02D8802252005A6080224E
:101310002C4B12011A60A169002905D0606900F008
:10132000B5FA01300138FDD1E023254A11680B40A0
:1013300025490B608021254B0901196080235B0042
:101340005360124BA36101E7D4090020006CDC025A
:101350001BB70000008000403CB0004030B00040AF
:10136000002F68590080024000389C1C00C00240D9
:10137000308000403090004030A00040001BB7009B
:101380003C8000403C9000403CA000404059730726
:101390005480004054B000405490004054A000409D
:1013A0006080004060B000406090004060A000405D
:1013B0006C8000406CB000406C9000406CA000401D
:1013C0004880004048B000404890004048A000409D
:1013D00001238340002904D0034A1360034A1360A9
:1013E0007047034A1360FBE780E200E000E100E0A1
:1013F00080E100E0024B10309B688000C0587047CD
:1014000000ED00E070B50D00EFF3108672B60F4AE4
:101410001368002BFCD0BFF35F8F0D4B10309B681F
:1014200084001B590B4A934203D09D4201D0FFF721
:1014300071FE074B9B681D51BFF35F8FBFF35F8F3A
:101440000022024B1A6086F3108870BD240100D080
:1014500000ED00E0CD010010F0B5DE4657464E46E7
:101460004546E0B50C0083B0EFF3108A72B65C4AD3
:101470001368002BFCD0BFF35F8F1022914681448C
:101480004A46584B96009B689D59574B98469D423B
:1014900005D0A54216D0554FEB1B2F2B14D9514B1D
:1014A0009B689D51BFF35F8FBFF35F8F00224C4B52
:1014B0001A608AF3108803B0F0BCBB46B246A94656
:1014C000A046F0BD1D00EAE7012383409B465A4633
:1014D000474B1B681A4000925A46464B1A60BFF3AE
:1014E0005F8FFEF7C0FE0190002803D0814501D038
:1014F000FFF710FE01232A0006209A431300DB1B8E
:101500005B4143495943090D1056936884469C42F8
:101510000AD15DE043001B189B00FB189868A042AD
:1015200011D006201A0018560028F3DA009B002B71
:1015300005D05A46304B1A602D4B1A60AFE75A4619
:101540002C4B1A60ABE7062018568446002823DB94
:1015500062466146520051188900781884689C6080
:10156000C479DC71062404579C71002C20DB808830
:10157000400500150818F91A0918E0200905490D59
:101580000002014399801D4B624419789200BA18F9
:10159000917162461A70C9E7019800280BD1FF309B
:1015A000907117489080154A107811709871BDE7B6
:1015B000BD210902E6E7134A1349D21A083A50023C
:1015C000400D01439980114952080A43DA80ADE782
:1015D00013000028BCDA019A002AECD14546E2E764
:1015E000240100D000ED00E0CD0100100402002035
:1015F00000E100E080E100E080E200E0890A0020F4
:1016000000BDFFFF3E02002000F0FFFF00F8FFFFDB
:10161000AAAA0000F8B5012504000543FEF723FE41
:10162000EFF3108C72B6214A1368002BFCD0BFF385
:101630005F8F1F4E2200B7681E49521A5241214B3C
:1016400053431B0D8200B8585BB2A8421CD006223F
:101650008A569A421CD012228A569A4222D01E22C0
:101660008A569A4220D02A228A5603209A4210D0C3
:10167000114A11781370A171BFF35F8F00220B4BD9
:101680001A608CF31088F8BDB1680C488850EFE7F9
:1016900000204200121892008918FF228A71084A1D
:1016A0008A80E5E70120F4E70220F2E7240100D078
:1016B00000ED00E004020020890A0020CD010010A6
:1016C00000BDFFFFAAAA0000F0B500220324FF27F7
:1016D000802620003D00094B11009C461040C000B0
:1016E0008540A14361440B680132AB43350085401E
:1016F0002B430B60202AECD1F0BDC04600E400E093
:10170000F8B504000C2017001D000E0000F0BEF814
:1017100043011B1A9901C91AC90009188901380027
:1017200000F0B4F8069B29041B0319432368002B1F
:1017300020DB174B174DE3185A42534180225201C8
:1017400094461B03144A63441360144A13601F0039
:10175000AA689743FBD1C023221D9B01134321227A
:101760002660A0601A602268002AFCDA0822E16084
:101770001A60F8BD3F2322681340B342D9D1A36851
:101780001B051B0D8342D4D1E3680029D1D1F0E7BA
:101790000040FDBF00C0004000E0004000F00040FD
:1017A0008023024A9B000343D362704700800540B8
:1017B000AA23064A1B0113602F230549D360054B5A
:1017C00019605368002BFCDA7047C04600400240A5
:1017D00000B0FA000060024010B5002800D110BD32
:1017E00000F08CF9FBE7C04610B5094A0300146805
:1017F00084B0002C08D0012200910648524203A96F
:10180000A047012004B010BD00F0D0F90020F9E796
:10181000440A0020D917001001480421014B184741
:101820005002002049180010142310B50100188838
:1018300004331B88984710BD162310B50100188883
:1018400002331B88984710BDF8B54746CE4680B591
:101850000F1E19D0142399460433040000250126D5
:1018600098464B461888434621681B88984701C410
:10187000431E9841013540420640AF42F1D130004D
:10188000C0BCB946B046F8BD0126F8E7114A936FCF
:101890009B0813D210665166002905D0FFE7FFE7C9
:1018A000FFE7516F106F704704B5002801D000208A
:1018B000C04300F0D5FA002104BDC046F0B5146E57
:1018C000556E576F166FFFF7E5FF1466556657673D
:1018D0001667F0BD000000D0132370B51D78012DF0
:1018E00010D00BDD1948FFF7A7FF194C010080222B
:1018F000200000F0B1F8022D01D070BD144C154B42
:10190000A364FAE7134B124C23606360A360E360A7
:1019100023616361A361E36123626362A362E362A3
:1019200023636363A363E36323646364A364E36483
:1019300023656365A365E36523666366A366E36663
:1019400023676367A367E367A364D6E75344000094
:10195000C00700205919001007B5604601880A0A1F
:101960000230DF2AFAD1C9B2820804D30288408843
:101970000004104300E00068014A5050039007BD86
:10198000C007002051434343C9188C46110C83B251
:101990004B4310B4040C614392B280B25043624393
:1019A0001C041B0C001910BC59411304120CC01864
:1019B0005141614470470000132310B512481C7850
:1019C000FFF73AFF0100012C0AD003DD80220F4807
:1019D00000F042F80E48FFF727FF0E4B186010BDCD
:1019E0000A4C5422200000F037F80B4B6365A365C6
:1019F000E36523666366A366E36623676367A3679D
:101A0000E3672362E361E5E753460000C008002076
:101A10004C330000700A00201D1A001007B5604604
:101A200001880A0A0230DF2AFAD1C9B2820804D337
:101A3000028840880004104300E00068014A5050CA
:101A4000039007BDC008002001480421014B18473E
:101A50006002002049180010014B5B681847000025
:101A600060020020F0B5D64646464F468246C0B5D5
:101A700015000E00002A39DD4B1E98461E4B002033
:101A8000002499460CE043461B5D671C0D3B5A42FF
:101A90005341325DDBB20A2A0AD0BD4219D03C0064
:101AA000002CF0D15346325D1B7C671C0A2AF4D10E
:101AB000002BF2D1A04204DA5346211A1B683018D9
:101AC00098475346484602211B6898473800BD4254
:101AD000E5D1A84204DA5346291A1B683018984702
:101AE000335D0D3B5A42534152461374E0BCBA4633
:101AF000B146A846F0BDC046341F0010F0B5CE4632
:101B0000474680B583B06B46DE1CD02330701B0681
:101B10001C68234B804601A91800994600F0A8F9DB
:101B2000071E27D01F4B1C68002C2FD01E4D02E033
:101B3000E468002C12D02268002AF9D02B68002B10
:101B400001D0A342F4D1637C002B0FD020000122EE
:101B50003100FFF787FFE468002CECD1002F15D18E
:101B6000404603B0C0BCB946B046F0BD01213000CC
:101B70009047DDE7019B64B29C420BD0484600F0E1
:101B80007FF9084B01271C68002CCFD1484600F094
:101B90005FF9E5E7034B1C68002CC7D1E0E7C046BE
:101BA0009C0600203C0A0020400A0020F0B5DE46DA
:101BB00057464E464546E0B585B0070000F0AEF802
:101BC000D0231B061C68434B03AD060029001800F8
:101BD0009B4600F04DF90090002862D03E4B1C68F7
:101BE0009A46002C6BD03D4B98460A2399463C4BB5
:101BF00001934346B0463E001F0002E0E468002C1B
:101C000023D02268002AF9D03B68002B01D0A342E0
:101C1000F4D1637C002B2FD0424631002000FFF727
:101C200021FF4B462B70637C002B2DD0237C226838
:101C3000002B2ED10221019890472B780D3B5A4260
:101C400053412374E468002CDBD1009B4646002BF3
:101C500035D153461C68002C06D06368002B1CD07D
:101C60009847E468002CF8D1300005B0F0BCBB46C2
:101C7000B246A946A046F0BD4146300090474B46CB
:101C80002B70637C002BD1D1012128002368984759
:101C9000B4E7012128009047CFE7E468002CDCD1AD
:101CA000E2E7039B64B29C420DD0584600F0E8F88E
:101CB000094B9A461C6801230093002C93D1584687
:101CC00000F0C6F8C5E7044B1C689A46002C00D00B
:101CD00089E7C9E79C0600203C0A0020400A002052
:101CE000341F001010B5010000230022002000F076
:101CF00043F810BD70B5074D074C641BA41005D008
:101D0000013CA300EB589847002CF9D100F09CF857
:101D100070BDC046BC060020BC06002010B583077D
:101D20000AD00300032102E001330B4205D01A78E8
:101D3000002AF9D1181A10BD030019680C4A0D4C7D
:101D40008A188A4322420FD15968094A04338A18F3
:101D50008A43224208D15968054A04338A188A43C3
:101D60002242F1D000E001331A78002AFBD1E1E7EA
:101D7000FFFEFEFE80808080F0B5D6464F46464688
:101D8000C0B5274F82B006003868914698468A460B
:101D900000F056F8234B1B680193A423019A5B00C3
:101DA000D558002D31D06C6838681F2C32DC002EDD
:101DB0000ED1631C6B6053460234A400635100F0E3
:101DC00041F8002002B0E0BCBA46B146A846F0BDDA
:101DD00088224946A300EB189950C42149008C463B
:101DE000AC446146873AA2406746096811433960AE
:101DF0008421474649005F50022EDAD12B008D33F3
:101E0000FF3319680A431A60D3E715004D35FF35D3
:101E1000D550C8E700F016F801204042D2E7C0468E
:101E200098060020381F0010034B10B5002B02D07D
:101E30000248FFF757FF10BD00000000F51C00101E
:101E40007047C0467047C046F8B5C0460000000065
:101E500001B40248844601BC604700BF7D010020F8
:101E600001B40248844601BC604700BFD501002090
:101E700001B40248844601BC604700BF2101002034
:101E800001B40248844601BC604700BFC100002085
:101E9000486172647761726520616C61726D2025A2
:101EA0006420616C726561647920636C61696D6541
:101EB000640000000A2A2A2A2050414E4943202A61
:101EC0002A2A0A000A0000004861726420617373C4
:101ED0006572740052656C6561736500626F6F7442
:101EE000325F77323571303830000000312E322EBB
:101EF000300000007069636F000000006D61696E62
:101F0000000000004A756C20313020323032310040
:101F100006005250BBFF3CB6F41E001006005250A3
:101F2000E182887FDC1E001006005250D3F075421B
:0C1F3000D41E00100D0A000070020020FA
:101F3C00B4020010A80200109C020010101F001028
:0C1F4C00900200101C1F0010281F001045
:101F580070B5D024002624060268EFF3108172B60B
:101F68001368002BFCD0BFF35F8F04230022C356F5
:101F7800A2565D1C16D093420CD14379012B09D986
:101F8800013B43710368BFF35F8F00221A6081F33E
:101F9800108870BD0368BFF35F8F1E6081F31088DF
:101FA80020BFD9E743790271002BEBD0E8E7C046A0
:101FB800030010B50068EFF3108C72B60268002AAF
:101FC800FCD0BFF35F8FD0220020120610560422E7
:101FD8009A56541C14D082420BD0002913D00020EA
:101FE8000A601B68BFF35F8F00221A608CF31088A9
:101FF80010BD58790128F0D9013858710120F0E74F
:1020080018710120EDE70020EBE7C0460268EFF306
:10201800108172B61368002BFCD0BFF35F8F437931
:10202800002B09D1FF2202710268BFF35F8F136092
:1020380081F3108840BF70470133DBB202684371F7
:10204800FF2B06D0BFF35F8F0023136081F3108846
:10205800F1E70371BFF35F8F0023136081F31088EA
:1020680040BFE8E77047C04610000000F4010020B8
:1020780000000000C0060020FC090020000000004D
:10208800000000000C0A0020000000000000000012
:102098001000000000000000000001000000000027
:1020A8000000000000000200000000000000000026
:1020B8000000030000000000000000000000FF0016
:1020C8000000000000B5486801318E4600477046A0
:1020D80009380149884700BD1516001000000000A6
:1020E800503300004C3300005433000052330000DA
:1020F8004D5300004D4300005334000043340000AA
:10210800000000005C050020C40500202C0600200B
:1021180000000000000000000000000000000000B7
:1021280000000000000000000000000000000000A7
:102138000000000000000000000000000000000097
:102148000000000000000000000000000000000087
:102158000000000000000000000000000000000077
:102168000000000000000000000000000000000067
:102178000000000000000000000000000000000057
:102188000000000000000000000000000000000047
:102198000000000000000000000000000000000037
:1021A8000000000000000000010000000000000026
:1021B8000E33CDAB34126DE6ECDE05000B000000EB
:1021C8000000000000000000000000000000000007
:1021D80000000000000000000000000000000000F7
:1021E80000000000000000000000000000000000E7
:1021F80000000000000000000000000000000000D7
:102528000000000000000000C009002000000000BA
:1025380000000000491A001019180010D9180010DE
:0C254800B9190010291E0010C502001077
:04000005100001E9FD
:00000001FF
